:10000000F1C100000EC200000CC200000AC20000D4
:1000100008C2000068C5000004C2000002C200005F
:1000200000C20000FEC10000FCC10000FAC10000D7
:10003000F8C10000C5C30000F4C10000F2C1000017
:10004000F0C1000079C30000ECC10000EAC100006B
:10005000E8C100002DC30000E4C10000E2C10000BF
:10006000E0C1000054C50000DCC1000080C50000F4
:10007000D8C10000D6C10000D4C10000D2C1000028
:10008000E3C30000CEC10000CCC10000CAC1000023
:10009000C8C10000C6C10000C4C10000C2C1000048
:1000A000C0C10000BEC1000013C40000BAC10000FE
:1000B000B8C10000B6C10000B4C10000B2C1000068
:1000C000B0C10000AEC10000ACC10000AAC1000078
:1000D000A8C10000A6C10000A4C10000A2C1000088
:1000E000A0C10000000000000000000000005F0050
:1000F00000000000000007000700000000147F144B
:100100007F14000000242A7F2A1200000023130815
:1001100064620000003649552250000000000503CB
:1001200000000000001C2241000000000041221CD1
:100130000000000000082A1C2A0800000008083EF1
:100140000808000000A06000000000000008080887
:100150000808000000606000000000000020100897
:1001600004020000003E5149453E00000000427F6D
:100170004000000000625149494600000022414908
:1001800049360000001814127F1000000027454572
:1001900045390000003C4A4949300000000171091E
:1001A0000503000000364949493600000006494968
:1001B000291E000000003636000000000000AC6C74
:1001C0000000000000081422410000000014141474
:1001D0001414000000412214080000000002015124
:1001E0000906000000324979413E0000007E0909FD
:1001F000097E0000007F494949360000003E414128
:1002000041220000007F4141221C0000007F49493B
:1002100049410000007F090909010000003E4141F9
:1002200051720000007F0808087F000000417F41F4
:1002300000000000002040413F010000007F081442
:1002400022410000007F404040400000007F020C3F
:10025000027F0000007F0408107F0000003E414143
:10026000413E0000007F090909060000003E41519F
:10027000215E0000007F0919294600000026494937
:10028000493200000001017F01010000003F4040B1
:10029000403F0000001F2040201F0000003F40386A
:1002A000403F00000063140814630000000304785A
:1002B000040300000061514945430000007F4141B3
:1002C0000000000000020408102000000041417FEF
:1002D0000000000000040201020400000080808091
:1002E000808000000001020400000000002054543F
:1002F00054780000007F48444438000000384444EB
:100300002800000000384444487F0000003854545E
:100310005418000000087E09020000000018A4A480
:10032000A47C0000007F08040478000000007D0029
:10033000000000000080847D00000000007F102885
:100340004400000000417F4000000000007C0418D1
:1003500004780000007C08047C000000003844445D
:100360003800000000FC2424180000000018242499
:10037000FC00000000007C08040000000048545409
:100380002400000000047F4400000000003C4040C6
:100390007C000000001C2040201C0000003C40307D
:1003A000403C00000044281028440000001CA0A08D
:1003B0007C000000004464544C44000000083641B6
:1003C0000000000000007F0000000000004136082F
:1003D000000000000002010102010000000205050A
:1003E0000200000011241FBECFEFD1E2DEBFCDBF5F
:1003F00000E00CBF12E0A0E0B2E0E0E1F0E100E0DC
:100400000BBF02C007900D92AE31B107D9F722E0C1
:10041000AEE1B2E001C01D92A832B207E1F72AD3E3
:10042000F5C5EECDE6E0F2E0178216821186108661
:10043000138612861182108281E090E0938382837A
:100440000288F389E02D199581E090E0089580916C
:100450000C0290910D028B33910539F580910E02BB
:1004600090910F028B339105B1F48091100290911D
:1004700011028731910529F4109211021092100295
:1004800005C00196909311028093100210920F0202
:1004900010920E0205C0019690930F0280930E02F7
:1004A00010920D0210920C0205C0019690930D025D
:1004B00080930C02E0911802F0911902199581E0E5
:1004C00090E0089582E084BD93E095BD99EF97BDDB
:1004D00098BD80936E0085BB81E090E00895CF9336
:1004E000DF93CDB7DEB72A970FB6F894DEBF0FBE05
:1004F000CDBF7894FE0131962AE0DF011D922A9546
:10050000E9F722E632E03A832983880F991FE80F42
:10051000F91F0190F081E02D199581E090E02A9675
:100520000FB6F894DEBF0FBECDBFDF91CF91089517
:10053000CF93DF9380910A0290910B02892B49F4AB
:1005400061E070E08AE090E0FAD390930B02809330
:100550000A0280911002909111028A30910564F094
:100560002AE030E0B901C4D340E3480FCB01B90120
:10057000BFD3D0E3D80F06C06AE070E0B9D340E340
:10058000480FD0E380910E0290910F028A309105BE
:1005900064F0EAE0F0E0BF01ABD330E3380FCB0109
:1005A000BF01A6D3C0E3C80F06C06AE070E0A0D3C5
:1005B00030E3380FC0E380910C0290910D028A3035
:1005C00091055CF0EAE0F0E0BF0192D320E3280F50
:1005D000CB01BF018DD3805D06C06AE070E088D397
:1005E00020E3280F80E3E6E0F2E0A481B581DC930C
:1005F000A481B58111964C93A481B5819AE312969A
:100600009C93A481B5811396CC93A481B581149653
:100610003C93A481B58115969C930480F581E02DCF
:10062000868327838AE080878DE0818781E090E060
:10063000DF91CF910895EF92FF920F931F93CF9385
:10064000DF931F921F92CDB7DEB78C01FC01808132
:10065000898381818A83CE010196ACD40F2EF6E086
:10066000EF2EF2E0FF2EF02DF70193878287F8013D
:100670008381898384818A83CE0101969BD4F7018B
:1006800091878087F8018681898387818A83CE015B
:10069000019690D4F7019783868381E090E00F90D4
:1006A0000F90DF91CF911F910F91FF90EF900895E0
:1006B0001F920F920FB60F9211240BB60F922F9329
:1006C0003F934F935F936F937F938F939F93AF93DA
:1006D000BF93CF93DF93EF93FF93E6E0F2E0808147
:1006E000918101969183808380819181883E93409E
:1006F00071F4EF010288F389E02D1995E889F989F1
:10070000199581E090E09B838A8319821882FF917A
:10071000EF91DF91CF91BF91AF919F918F917F9199
:100720006F915F914F913F912F910F900BBE0F9062
:100730000FBE0F901F9018951F920F920FB60F9239
:1007400011240BB60F922F933F934F935F936F93A8
:100750007F938F939F93AF93BF93CF93DF93EF9349
:10076000FF93E6E0F2E0808191810196918380839E
:1007700080819181883E934071F4EF010288F38972
:10078000E02D1995E889F989199581E090E09B831E
:100790008A8319821882FF91EF91DF91CF91BF91E7
:1007A000AF919F918F917F916F915F914F913F9109
:1007B0002F910F900BBE0F900FBE0F901F901895AA
:1007C0001F920F920FB60F9211240BB60F922F9318
:1007D0003F934F935F936F937F938F939F93AF93C9
:1007E000BF93CF93DF93EF93FF93E6E0F2E0808136
:1007F000918101969183808380819181883E93408D
:1008000071F4EF010288F389E02D1995E889F989DF
:10081000199581E090E09B838A8319821882FF9169
:10082000EF91DF91CF91BF91AF919F918F917F9188
:100830006F915F914F913F912F910F900BBE0F9051
:100840000FBE0F901F9018951F920F920FB60F9228
:1008500011240BB60F922F933F934F935F936F9397
:100860007F938F939F93AF93BF93CF93DF93EF9338
:10087000FF93E6E0F2E0808191810196918380838D
:1008800080819181883E934071F4EF010288F38961
:10089000E02D1995E889F989199581E090E09B830D
:1008A0008A8319821882FF91EF91DF91CF91BF91D6
:1008B000AF919F918F917F916F915F914F913F91F8
:1008C0002F910F900BBE0F900FBE0F901F90189599
:1008D0001F920F920FB60F9211240BB60F922F9307
:1008E0003F934F935F936F937F938F939F93AF93B8
:1008F000BF93CF93DF93EF93FF93E6E0F2E0808125
:10090000918101969183808380819181883E93407B
:1009100071F4EF010288F389E02D1995E889F989CE
:10092000199581E090E09B838A8319821882FF9158
:10093000EF91DF91CF91BF91AF919F918F917F9177
:100940006F915F914F913F912F910F900BBE0F9040
:100950000FBE0F901F90189581B1816081B982B14F
:10096000816082B92FEF83ED90E321508040904069
:10097000E1F700C0000082E18093B800E9EBF0E00D
:1009800080818C7F808385E08093BC00089594EA09
:100990009093BC009091BC009923E4F79091B9002A
:1009A000987F983091F48093BB0084E88093BC00DA
:1009B0008091BC008823E4F78091B900887F88315A
:1009C00031F0803231F482E0089580E0089581E0D2
:1009D000089583E008958093BB0084E88093BC0071
:1009E0008091BC008823E4F78091B900887F883229
:1009F00021F0803321F481E0089580E0089582E0C1
:100A0000089584E98093BC008091BC0084FDFCCFF4
:100A100008951DB88FEF8EB982E080936A0080E15F
:100A20008DBB789408958FEF8093C5008093C400A8
:100A3000E1ECF0E08081886D8083E2ECF0E0808181
:100A40008660808308958091C60080931C0281E0B7
:100A500090E008958091200290912102892B49F421
:100A600081E38093C60081E090E09093210280931F
:100A70002002089588E780931D026EDF92D0F7D0A0
:100A8000E2D0D1DFC6E0D2E08E859F85FC011995CA
:100A9000EC85FD8580E090E01995BBDFFFEF23ED4D
:100AA00080E3F15020408040E1F700C00000D2DF39
:100AB000E0911802F091190219958091220290910B
:100AC0002302892B21F0109223021092220280919E
:100AD000080290910902892B51F3B5D010920902B6
:100AE00010920802E4CF1F920F920FB60F921124BA
:100AF0008F939F9381E090E0909323028093220252
:100B00009F918F910F900FBE0F901F9018951F927D
:100B10000F920FB60F9211240BB60F922F933F93A3
:100B20004F935F936F937F938F939F93AF93BF93F5
:100B3000EF93FF9388DF80911E0290911F02019630
:100B400090931F0280931E02FF91EF91BF91AF918E
:100B50009F918F917F916F915F914F913F912F91D5
:100B60000F900BBE0F900FBE0F901F9018951F9205
:100B70000F920FB60F9211241092210210922002B0
:100B80000F900FBE0F901F901895CF93C82F809194
:100B90001D02FDDE80E01FDF8C2F1DDF32DFCF91D5
:100BA00008958EEAF2DF85EDF0DF80E8EEDF88EA77
:100BB000ECDF8FE3EADF83EDE8DF80E0E6DF80E46F
:100BC000E4DF8DE8E2DF84E1E0DF80E2DEDF80E089
:100BD000DCDF81EADADF88ECD8DF8AEDD6DF82E17C
:100BE000D4DF81E8D2DF8FECD0DF89EDCEDF81EF7B
:100BF000CCDF8BEDCADF80E4C8DF84EAC6DF86EA9B
:100C0000C4DF8FEAC2CF0895CF93C82F80911D0211
:100C1000BEDE80E4E0DE8C2FDEDEF3DECF910895D1
:100C2000CF93C62F8055B1DF8C2F880F880F880F88
:100C30008870ABDF8C2F90E0969587958F70805FE2
:100C4000A4DFCF910895CF93DF93D0E00BC060E095
:100C50008D2FE6DFC0E003C080E0D6DFCF5FCC237E
:100C6000DCF7DF5FD83098F3DF91CF910895DF9202
:100C7000EF92FF920F931F93CF93DF93E4DFE12C6A
:100C8000F12C6894DD24D5F827C060E08E2DC8DFF4
:100C900000E010E019C0F801ED0DF11DB097EE0F66
:100CA000FF1FEE0FFF1FEE0FFF1FEC51FF4FEC0F6A
:100CB000FD1F8491A9DF219602C0C0E0D0E0C830BA
:100CC000D1054CF30F5F1F4F00311105B4F380E1E4
:100CD000D80E8FEFE81AF80A86E0E816F104ACF2B5
:100CE000DF91CF911F910F91FF90EF90DF900895CA
:100CF00097FB072E16F4009406D077FD08D00BD092
:100D000007FC05D03EF4909581959F4F089570950E
:100D100061957F4F0895AA1BBB1B51E107C0AA1F15
:100D2000BB1FA617B70710F0A61BB70B881F991F8C
:100D30005A95A9F780959095BC01CD0108950F9320
:100D40001F93CF93DF93869F8001879F100D969FFF
:100D5000100D1124C8010DD0EC01009721F0A8015D
:100D600060E070E044D1CE01DF91CF911F910F91EF
:100D700008950F931F93CF93DF938230910510F462
:100D800082E090E0E0912602F091270220E030E03E
:100D9000A0E0B0E0309719F14081518102811381C8
:100DA00048175907C8F08417950769F4109731F070
:100DB00012960C93129713961C9327C00093260249
:100DC0001093270222C02115310519F0421753074D
:100DD00018F49A01BD01EF01DF01F801DBCF211505
:100DE0003105F9F0281B390B2430310580F48A8154
:100DF0009B816115710521F0FB019383828304C0FF
:100E00009093270280932602FE01329644C0FE0191
:100E1000E20FF31F81939193225031093983288384
:100E20003AC02091240230912502232B41F42091D5
:100E30000202309103023093250220932402209174
:100E40000002309101022115310541F42DB73EB762
:100E50004091040250910502241B350BE0912402BD
:100E6000F0912502E217F307A0F42E1B3F0B281781
:100E7000390778F0AC014E5F5F4F2417350748F013
:100E80004E0F5F1F5093250240932402819391934C
:100E900002C0E0E0F0E0CF01DF91CF911F910F9110
:100EA0000895CF93DF93009709F481C0FC01329736
:100EB00013821282A0912602B0912702109781F42A
:100EC00020813181820F931F2091240230912502CD
:100ED0002817390751F5F0932502E093240267C0E3
:100EE000ED0120E030E0CE17DF0740F44A815B815E
:100EF0009E0141155105F1F0EA01F5CFD383C2837C
:100F000040815181840F951FC817D90759F48881F2
:100F10009981840F951F0296918380838A819B819A
:100F2000938382832115310529F4F0932702E093FE
:100F300026023DC0E901FB83EA8349915991C40F20
:100F4000D51FEC17FD0761F480819181840F951FF7
:100F50000296E90199838883828193819B838A83A6
:100F6000E0E0F0E012968D919C911397009719F0B4
:100F7000FD01DC01F7CF8D919C9111979D012E5FB2
:100F80003F4F820F931F2091240230912502281792
:100F9000390769F4309729F410922702109226023B
:100FA00002C013821282B0932502A0932402DF9123
:100FB000CF910895FC0188279927E8942191203248
:100FC000E9F3293010F02E30C8F32B3239F02D32EE
:100FD00031F4689403C012D0820F911D21912053E7
:100FE0002A30C8F31EF4909581959F4F0895DC0137
:100FF00001C06D9341505040E0F708957AE0979F0B
:10100000902D879F802D910D11240895F894FFCF86
:101010000000280220000000000000000000000086
:0E10200000006F021202270298021B032078C4
:00000001FF
