S010000050726F6A656374342E7372656309
S113000071C0000086C0000084C0000082C00000EF
S113001080C000007EC000007CC000007AC00000E8
S113002078C0000076C0000074C0000072C00000F8
S113003070C000006EC000006CC000006AC0000008
S113004068C0000066C0000064C0000062C0000018
S113005060C000005EC000005CC000005AC0000028
S113006058C0000056C0000054C0000052C0000038
S113007050C000004EC000004CC000004AC0000048
S113008048C0000046C0000044C0000042C0000058
S113009040C000003EC000003CC000003AC0000068
S11300A038C0000036C0000034C0000032C0000078
S11300B030C000002EC000002CC000002AC0000088
S11300C028C0000026C0000024C0000022C0000098
S11300D020C000001EC000001CC000001AC00000A8
S11300E018C0000011241FBECFEFD1E2DEBFCDBF88
S11300F000E00CBF12E0A0E0B2E0E8EFF3E000E0C3
S11301000BBF02C007900D92AE30B107D9F702D0F1
S113011071C176CFE0910202F091030240E050E019
S113012060E07BE480E090E01995FFCF0F931F938C
S1130130CF93DF93EB018A0182959295907F982764
S1130140807F98279C01990F440B550B60E074E263
S113015084EF90E02DD121503109A0E0B2E0119656
S11301603C932E93BE01660F771F660F771FF8012D
S1130170E60FF71F308311828D919C919927938309
S11301808283D801A05CBF4FA60FB71F81E090E027
S11301909C010C9002C0220F331F0A94E2F7005B0B
S11301A01F4FD801A60FB71F0C9002C0880F991FCC
S11301B00A94E2F7822B932B91A380A381E090E031
S11301C0DF91CF911F910F910895880F991F880F88
S11301D0991F880F991F9C01990F440B550B60E0E0
S11301E074E284EF90E0E4D02150310930930102AD
S11301F02093000281E090E0089581E090E008956A
S113020081E090E00895EF92FF920F931F93CF93B4
S1130210DF93CDB7DEB7C856D1090FB6F894DEBF69
S11302200FBECDBF443051050CF0B1C08A017B0133
S11302309C0188E0E6E0F2E0DE01119601900D9267
S11302408A95E1F7AE01475F5F4F80E6FA011192AC
S11302508A95E9F78091C40090E09A878987809114
S1130260C50090E09C878B878091CC0090E09E87AE
S11302708D878091CD0090E0988B8F878091D400FA
S113028090E09A8B898B8091D50090E09C8B8B8B2E
S11302908091340190E09E8B8D8B8091350190E0AC
S11302A0988F8F8B8091C00090E09A8F898F809176
S11302B0C80090E09E8F8D8F8091D00090E09AA32B
S11302C089A38091300190E09EA38DA38091C10009
S11302D090E09AA789A78091C90090E09EA78DA776
S11302E08091D10090E09AAB89AB8091310190E08C
S11302F09EAB8DAB8091C20090E09AAF89AF8091A4
S1130300CA0090E09EAF8DAF8091D20090E023961A
S11303109FAF8EAF23978091320190E027969FAFD5
S11303208EAF279783E090E02B969FAF8EAF2B97ED
S11303302F969FAF8EAF2F9763969FAF8EAF639725
S113034067969FAF8EAF679784E090E06B969FAF00
S11303508EAF6B976F969FAF8EAF6F97A3969FAF3D
S11303608EAFA397A7969FAF8EAFA797220F331F89
S1130370E1E0F0E0EC0FFD1FE20FF31F0190F081CC
S1130380E02DB801C701199581E090E002C080E03A
S113039090E0C859DF4F0FB6F894DEBF0FBECDBF53
S11303A0DF91CF911F910F91FF90EF9008950895E1
S11303B0A1E21A2EAA1BBB1BFD010DC0AA1FBB1F65
S11303C0EE1FFF1FA217B307E407F50720F0A21BD7
S11303D0B30BE40BF50B661F771F881F991F1A9444
S11303E069F760957095809590959B01AC01BD016E
S10B03F0CF010895F894FFCF3A
S11103F800000301D7019600E500FD0000019E
S9030000FC
