S010000050726F6A656374342E7372656309
S113000071C000008EC000008CC000008AC00000D7
S113001088C0000086C0000084C0000082C00000C8
S113002080C000007EC000007CC000007AC00000D8
S113003078C0000076C0000074C0000072C00000E8
S113004070C000006EC000006CC000006AC00000F8
S113005068C0000066C0000064C0000062C0000008
S113006060C000005EC000005CC000005AC0000018
S113007058C0000056C0000054C0000052C0000028
S113008050C000004EC000004CC000004AC0000038
S113009048C0000046C0000044C0000042C0000048
S11300A040C000003EC000003CC000003AC0000058
S11300B038C0000036C0000034C0000032C0000068
S11300C030C000002EC000002CC000002AC0000078
S11300D028C0000026C0000024C0000022C0000088
S11300E020C0000011241FBECFEFD1E2DEBFCDBF80
S11300F000E00CBF12E0A0E0B2E0E2E4F4E000E0D3
S11301000BBF02C007900D92A031B107D9F72BE0C5
S1130110A0E1B2E001C01D92A031B207E1F733D0F3
S11301208EC16ECF8091C4008091C5008091CC00B7
S11301308091CD008091D4008091D50080913401CC
S1130140809135018091C0008091C8008091D000D9
S1130150809130018091C1008091C9008091D100CB
S1130160809131018091C2008091CA008091D200B7
S1130170809132018091C6008091CE008091D6009A
S1130180809136010895E0910402F091050240E067
S113019050E060E07BE480E090E01995E091060295
S11301A0F091070283E71995F9CF0F931F93CF932B
S11301B0DF93EB018A0182959295907F9827807F47
S11301C098279C01990F440B550B60E074E284EF6F
S11301D090E013D121503109A0E0B2E011963C9394
S11301E02E93AE01440F551FFA01EC0FFD1FEE0FC5
S11301F0FF1FE00FF11F308311828D919C9199278D
S113020093838283C801805A9F4FDA01AC0FBD1FCC
S1130210AA0FBB1FA80FB91F81E090E0BC010C908E
S113022002C0660F771F0A94E2F7980128583F4FDF
S1130230DA01AC0FBD1FAA0FBB1FA20FB31F9C0195
S11302400C9002C0220F331F0A94E2F7262B372B9F
S113025031AB20AB980120573F4FFA01EC0FFD1F43
S1130260EE0FFF1FE20FF31FBC01008002C0660FF8
S1130270771F0A94E2F79C01028002C0220F331F09
S11302800A94E2F7262B372B048002C0880F991FAB
S11302900A94E2F7822B932B085B1F4FC40FD51FE0
S11302A0CC0FDD1FC00FD11F9983888381E090E0BC
S11302B0DF91CF911F910F910895880F991F880F97
S11302C0991F880F991F9C01990F440B550B60E0EF
S11302D074E284EF90E091D021503109309301020F
S11302E02093000281E090E0089581E090E0089579
S11302F081E090E008952091020230910302F90117
S1130300EE0FFF1FE20FF31FEE0FFF1FE05FFD4F25
S1130310908D95FFF0CFF901EE0FFF1FE20FF31F51
S1130320EE0FFF1FE05FFD4FDF01A054BF4F41E020
S113033050E00C9002C0440F551F0A94E2F7409518
S1130340509560A971A94623572351AB40AB90E067
S1130350F901EE0FFF1FE20FF31FEE0FFF1FE8542A
S1130360FD4F918380830895CF92DF92EF92FF92A5
S11303700F931F93CF93DF93CDB7DEB728970FB6B4
S1130380F894DEBF0FBECDBF443051052CF57A0181
S11303906B018C01C7DEF0920302E092020288E056
S11303A0E8E0F2E0DE01119601900D928A95E1F702
S11303B0C801880F991FE1E0F0E0EC0FFD1FE80F82
S11303C0F91F0190F081E02D40E152E0B701C60130
S11303D0199581E090E002C080E090E028960FB685
S11303E0F894DEBF0FBECDBFDF91CF911F910F9167
S11303F0FF90EF90DF90CF900895A1E21A2EAA1BF0
S1130400BB1BFD010DC0AA1FBB1FEE1FFF1FA217C0
S1130410B307E407F50720F0A21BB30BE40BF50BBD
S1130420661F771F881F991F1A9469F76095709546
S1130430809590959B01AC01BD01CF010895F8947E
S1050440FFCFE8
S113044200000000B4017B01D5005D017501780153
S9030000FC
