S010000050726F6A656374342E7372656309
S1130000F1C100000EC200000CC200000AC20000D0
S113001008C2000006C2000004C2000002C20000C0
S113002000C20000FEC10000FCC10000FAC10000D3
S1130030F8C10000F6C10000F4C10000F2C10000E4
S1130040F0C10000EEC10000ECC10000EAC10000F4
S1130050E8C10000E6C10000E4C10000E2C1000004
S1130060E0C10000F1C40000DCC10000DAC10000FE
S1130070D8C10000D6C10000D4C10000D2C1000024
S1130080D0C10000CEC10000CCC10000CAC1000034
S113009002C50000C6C10000C4C10000C2C1000006
S11300A0C0C10000BEC10000BCC10000BAC1000054
S11300B0B8C10000B6C10000B4C10000B2C1000064
S11300C0B0C10000AEC10000ACC100000BC500000F
S11300D0A8C10000A6C100002CC50000A2C10000F8
S11300E0A0C10000000000000000000000005F004C
S11300F000000000000007000700000000147F1447
S11301007F14000000242A7F2A1200000023130811
S113011064620000003649552250000000000503C7
S113012000000000001C2241000000000041221CCD
S11301300000000000082A1C2A0800000008083EED
S11301400808000000A06000000000000008080883
S11301500808000000606000000000000020100893
S113016004020000003E5149453E00000000427F69
S11301704000000000625149494600000022414904
S113018049360000001814127F100000002745456E
S113019045390000003C4A4949300000000171091A
S11301A00503000000364949493600000006494964
S11301B0291E000000003636000000000000AC6C70
S11301C00000000000081422410000000014141470
S11301D01414000000412214080000000002015120
S11301E00906000000324979413E0000007E0909F9
S11301F0097E0000007F494949360000003E414124
S113020041220000007F4141221C0000007F494937
S113021049410000007F090909010000003E4141F5
S113022051720000007F0808087F000000417F41F0
S113023000000000002040413F010000007F08143E
S113024022410000007F404040400000007F020C3B
S1130250027F0000007F0408107F0000003E41413F
S1130260413E0000007F090909060000003E41519B
S1130270215E0000007F0919294600000026494933
S1130280493200000001017F01010000003F4040AD
S1130290403F0000001F2040201F0000003F403866
S11302A0403F000000631408146300000003047856
S11302B0040300000061514945430000007F4141AF
S11302C00000000000020408102000000041417FEB
S11302D0000000000004020102040000008080808D
S11302E0808000000001020400000000002054543B
S11302F054780000007F48444438000000384444E7
S11303002800000000384444487F0000003854545A
S11303105418000000087E09020000000018A4A47C
S1130320A47C0000007F08040478000000007D0025
S1130330000000000080847D00000000007F102881
S11303404400000000417F4000000000007C0418CD
S113035004780000007C08047C0000000038444459
S11303603800000000FC2424180000000018242495
S1130370FC00000000007C08040000000048545405
S11303802400000000047F4400000000003C4040C2
S11303907C000000001C2040201C0000003C403079
S11303A0403C00000044281028440000001CA0A089
S11303B07C000000004464544C44000000083641B2
S11303C00000000000007F0000000000004136082B
S11303D00000000000020101020100000002050506
S11303E00200000011241FBECFEFD1E2DEBFCDBF5B
S11303F000E00CBF12E0A0E0B2E0E8ECFBE000E0BB
S11304000BBF02C007900D92A432B107D9F722E0C6
S1130410A4E2B2E001C01D92A432B207E1F75FD0BA
S1130420D1C3EECD81B1816081B982B1816082B9DD
S11304302FEF83ED90E3215080409040E1F700C01E
S1130440000082E18093B800E9EBF0E080818C7FCA
S1130450808385E08093BC00089594EA9093BC0067
S11304609091BC009923E4F79091B900987F98305B
S113047091F48093BB0084E88093BC008091BC001D
S11304808823E4F78091B900887F883131F0803285
S113049031F482E0089580E0089581E0089583E0D6
S11304A008958093BB0084E88093BC008091BC00D5
S11304B08823E4F78091B900887F883221F0803363
S11304C021F481E0089580E0089582E0089584E9AC
S11304D08093BC008091BC0084FDFCCF089588E724
S11304E0809300029FDF30D0BCD080D0E09108021E
S11304F0F091090241E050E060E07BE480E090E0AC
S11305001995C1E0D2E0E985FA8583E719956ED0A3
S11305108E8140E050E060E070E07CD02FEF83ED0E
S113052090E3215080409040E1F700C00000E9CF03
S1130530CF93C82F8091000290DF80E0B2DF8C2F30
S1130540B0DFC5DFCF9108958EEAF2DF85EDF0DFED
S113055080E8EEDF88EAECDF8FE3EADF83EDE8DFB3
S113056080E0E6DF80E4E4DF8DE8E2DF84E1E0DFE1
S113057080E2DEDF80E0DCDF81EADADF88ECD8DFEE
S11305808AEDD6DF82E1D4DF81E8D2DF8FECD0DFE1
S113059089EDCEDF81EFCCDF8BEDCADF80E4C8DFED
S11305A084EAC6DF86EAC4DF8FEAC2CF0895CF9318
S11305B0C82F8091000251DF80E473DF8C2F71DF3C
S11305C086DFCF910895CF93C62F8055B1DF8C2F4E
S11305D0880F880F880F8870ABDF8C2F90E096957A
S11305E087958F70805FA4DFCF910895CF93DF93B9
S11305F0D0E00BC060E08D2FE6DFC0E003C080E0F8
S1130600D6DFCF5FCC23DCF7DF5FD83098F3DF9100
S1130610CF9108951F93CF93DF93182F862F642FC4
S1130620D2DF8091000219DF80E43BDFC0E0D0E03C
S113063010C0E12FF0E0B097EE0FFF1FEE0FFF1F89
S1130640EE0FFF1FEC51FF4FEC0FFD1F849129DFCC
S11306502196C830D1056CF33ADFDF91CF911F9119
S11306600895DF92EF92FF920F931F93CF93DF933E
S1130670BDDFE12CF12C6894DD24D5F827C060E0BF
S11306808E2DA1DF00E010E019C0F801ED0DF11D81
S1130690B097EE0FFF1FEE0FFF1FEE0FFF1FEC5181
S11306A0FF4FEC0FFD1F849182DF219602C0C0E052
S11306B0D0E0C830D1054CF30F5F1F4F0031110556
S11306C0B4F380E1D80E8FEFE81AF80A86E0E81652
S11306D0F104ACF2DF91CF911F910F91FF90EF9055
S11306E0DF90089582959295907F9827807F982730
S11306F09C01990F440B550B60E074E284EF90E089
S11307003FD221503109E1E0F2E03183208330937C
S1130710C40080818093C500E0ECF0E080818068B3
S11307208083E1ECF0E080818C698083E2ECF0E08E
S113073080818660808381E090E00895829592951F
S1130740907F9827807F98279C01990F440B550B25
S113075060E074E284EF90E013D221503109E1E0CB
S1130760F2E0318320833093CC0080818093CD00EC
S1130770E8ECF0E0808180688083E9ECF0E080813F
S11307808C698083EAECF0E080818660808381E07C
S113079090E0089582959295907F9827807F98277E
S11307A09C01990F440B550B60E074E284EF90E0D8
S11307B0E7D121503109E1E0F2E031832083309325
S11307C0D40080818093D500E0EDF0E080818068E2
S11307D08083E1EDF0E080818C698083E2EDF0E0DC
S11307E080818660808381E090E00895829592956F
S11307F0907F9827807F98279C01990F440B550B75
S113080060E074E284EF90E0BBD121503109E1E073
S1130810F2E0318320833093340180818093350169
S1130820E0E3F1E0808180688083E1E3F1E08081AE
S11308308C698083E2E3F1E080818660808381E0DB
S113084090E00895CF93DF93CDB7DEB728970FB626
S1130850F894DEBF0FBECDBF44305105F4F4CB0194
S11308607894509304024093030228E0ECE0F2E011
S1130870DE01119601900D922A95E1F7440F551F60
S1130880E1E0F0E0EC0FFD1FE40FF51F0190F081B3
S1130890E02D199581E090E002C080E090E0289678
S11308A00FB6F894DEBF0FBECDBFDF91CF91089590
S11308B0E1ECF0E090819E7F90838093C60081E01C
S11308C090E00895E9ECF0E090819E7F908380931E
S11308D0CE0081E090E00895E1EDF0E090819E7F0C
S11308E090838093D60081E090E00895E1E3F1E005
S11308F090819E7F90838093360181E090E00895FB
S1130900CF93DF93CDB7DEB728970FB6F894DEBF49
S11309100FBECDBF98E0E4E1F2E0DE011196019054
S11309200D929A95E1F7E0910302F0910402EE0F23
S1130930FF1F21E030E02C0F3D1FE20FF31F019059
S1130940F081E02D199581E090E028960FB6F89497
S1130950DEBF0FBECDBFDF91CF9108958091C1005E
S1130960E1E0F2E084838091C600858384818695EA
S11309708170848384818581868381E090E00895F9
S11309808091C900E1E0F2E084838091CE00858308
S1130990848186958170848384818581868381E0C6
S11309A090E008958091D100E1E0F2E084838091A9
S11309B0D600858384818695817084838481858132
S11309C0868381E090E0089580913101E1E0F2E0D6
S11309D084838091360185838481869581708483A4
S11309E084818581868381E090E00895CF93DF93AD
S11309F0CDB7DEB728970FB6F894DEBF0FBECDBFD4
S1130A0088E0ECE1F2E0DE01119601900D928A9506
S1130A10E1F7E0910302F0910402EE0FFF1F81E081
S1130A2090E08C0F9D1FE80FF91F0190F081E02DDD
S1130A30199581E090E028960FB6F894DEBF0FBEBA
S1130A40CDBFDF91CF9108951F920F920FB60F92F1
S1130A5011240BB60F922F933F934F935F936F9391
S1130A607F938F939F93AF93BF93EF93FF93BEDFD7
S1130A70FF91EF91BF91AF919F918F917F916F9172
S1130A805F914F913F912F910F900BBE0F900FBE2E
S1130A900F901F9018951F920F920FB60F9211246A
S1130AA00BB60F922F933F934F935F936F937F9364
S1130AB08F939F93AF93BF93EF93FF9397DFFF9130
S1130AC0EF91BF91AF919F918F917F916F915F91C2
S1130AD04F913F912F910F900BBE0F900FBE0F902F
S1130AE01F9018951F920F920FB60F9211240BB6F8
S1130AF00F922F933F934F935F936F937F938F93B3
S1130B009F93AF93BF93EF93FF9370DFFF91EF91A8
S1130B10BF91AF919F918F917F916F915F914F9111
S1130B203F912F910F900BBE0F900FBE0F901F900F
S1130B3018951F920F920FB60F9211240BB60F92B5
S1130B402F933F934F935F936F937F938F939F93D1
S1130B50AF93BF93EF93FF9349DFFF91EF91BF9161
S1130B60AF919F918F917F916F915F914F913F9141
S1130B702F910F900BBE0F900FBE0F901F901895E2
S1130B80A1E21A2EAA1BBB1BFD010DC0AA1FBB1F8D
S1130B90EE1FFF1FA217B307E407F50720F0A21BFF
S1130BA0B30BE40BF50B661F771F881F991F1A946C
S1130BB069F760957095809590959B01AC01BD0196
S10B0BC0CF010895F894FFCF62
S1130BC878000000000000002204800472039E03E1
S1130BD8CA03F603580462046C047604AE04C00421
S1070BE8D204E40447
S9030000FC
