:10000000F1C100000FC200000DC200000BC20000D1
:1000100009C2000044C5000005C2000003C2000080
:1000200001C20000FFC10000FDC10000FBC10000D3
:10003000F9C10000C0C30000F5C10000F3C1000019
:10004000F1C1000077C30000EDC10000EBC100006A
:10005000E9C100002EC30000E5C10000E3C10000BB
:10006000E1C100000C945608DDC10000DBC10000B6
:10007000D9C10000D7C10000D5C10000D3C1000024
:10008000DBC30000CFC10000CDC10000CBC1000028
:100090000C947D08C7C10000C5C10000C3C10000A9
:1000A000C1C10000BFC1000008C40000BBC1000006
:1000B000B9C10000B7C10000B5C10000B3C1000064
:1000C000B1C10000AFC10000ADC100000C94A40894
:1000D000A9C10000A7C100000C94CB08A3C1000077
:1000E000A1C10000000000000000000000005F004F
:1000F00000000000000007000700000000147F144B
:100100007F14000000242A7F2A1200000023130815
:1001100064620000003649552250000000000503CB
:1001200000000000001C2241000000000041221CD1
:100130000000000000082A1C2A0800000008083EF1
:100140000808000000A06000000000000008080887
:100150000808000000606000000000000020100897
:1001600004020000003E5149453E00000000427F6D
:100170004000000000625149494600000022414908
:1001800049360000001814127F1000000027454572
:1001900045390000003C4A4949300000000171091E
:1001A0000503000000364949493600000006494968
:1001B000291E000000003636000000000000AC6C74
:1001C0000000000000081422410000000014141474
:1001D0001414000000412214080000000002015124
:1001E0000906000000324979413E0000007E0909FD
:1001F000097E0000007F494949360000003E414128
:1002000041220000007F4141221C0000007F49493B
:1002100049410000007F090909010000003E4141F9
:1002200051720000007F0808087F000000417F41F4
:1002300000000000002040413F010000007F081442
:1002400022410000007F404040400000007F020C3F
:10025000027F0000007F0408107F0000003E414143
:10026000413E0000007F090909060000003E41519F
:10027000215E0000007F0919294600000026494937
:10028000493200000001017F01010000003F4040B1
:10029000403F0000001F2040201F0000003F40386A
:1002A000403F00000063140814630000000304785A
:1002B000040300000061514945430000007F4141B3
:1002C0000000000000020408102000000041417FEF
:1002D0000000000000040201020400000080808091
:1002E000808000000001020400000000002054543F
:1002F00054780000007F48444438000000384444EB
:100300002800000000384444487F0000003854545E
:100310005418000000087E09020000000018A4A480
:10032000A47C0000007F08040478000000007D0029
:10033000000000000080847D00000000007F102885
:100340004400000000417F4000000000007C0418D1
:1003500004780000007C08047C000000003844445D
:100360003800000000FC2424180000000018242499
:10037000FC00000000007C08040000000048545409
:100380002400000000047F4400000000003C4040C6
:100390007C000000001C2040201C0000003C40307D
:1003A000403C00000044281028440000001CA0A08D
:1003B0007C000000004464544C44000000083641B6
:1003C0000000000000007F0000000000004136082F
:1003D000000000000002010102010000000205050A
:1003E0000200000011241FBECFEFD1E2DEBFCDBF5F
:1003F00000E00CBF12E0A0E0B2E0E8E4F5E100E0CC
:100400000BBF02C007900D92A235B107D9F722E0C9
:10041000A2E5B2E001C01D92A635B207E1F7F5D220
:100420000C94A20AEDCDE6E0F2E017821682118666
:100430001086138612861182108281E090E09383E9
:1004400082830288F389E02D199581E090E0089578
:1004500080910C0290910D028B33910539F58091BA
:100460000E0290910F028B339105B1F4809110022E
:10047000909111028731910529F410921102109286
:10048000100205C001969093110280931002109201
:100490000F0210920E0205C0019690930F028093F6
:1004A0000E0210920D0210920C0205C0019690935C
:1004B0000D0280930C02E0911802F0911902199537
:1004C00081E090E0089582E084BD93E095BD99EFCE
:1004D00097BD98BD80936E0085BB81E090E0089544
:1004E000CF93DF93CDB7DEB72A970FB6F894DEBF70
:1004F0000FBECDBF7894FE0131962AE0DF011D9238
:100500002A95E9F723E632E03A832983880F991F79
:10051000E80FF91F0190F081E02D199581E090E03E
:100520002A960FB6F894DEBF0FBECDBFDF91CF91F4
:100530000895CF93DF9380910A0290910B02892B4B
:1005400049F461E070E08AE090E095D690930B0268
:1005500080930A0280911002909111028A309105D5
:1005600064F02AE030E0B9013DD640E3480FCB010A
:10057000B90138D6D0E3D80F06C06AE070E032D6B1
:1005800040E3480FD0E380910E0290910F028A3031
:10059000910564F0EAE0F0E0BF0124D630E3380FC3
:1005A000CB01BF011FD6C0E3C80F06C06AE070E0F0
:1005B00019D630E3380FC0E380910C0290910D0200
:1005C0008A3091055CF0EAE0F0E0BF010BD620E351
:1005D000280FCB01BF0106D6805D06C06AE070E03F
:1005E00001D620E3280F80E3E6E0F2E0A481B581A4
:1005F000DC93A481B58111964C93A481B5819AE3D3
:1006000012969C93A481B5811396CC93A481B58155
:1006100014963C93A481B58115969C930480F58132
:10062000E02D868327838AE080878DE0818781E0C3
:1006300090E0DF91CF910895EF92FF920F931F9377
:10064000CF93DF931F921F92CDB7DEB78C01FC01D1
:100650008081898381818A83CE01019647D70F2EBD
:10066000F6E0EF2EF2E0FF2EF02DF7019387828760
:10067000F8018381898384818A83CE01019636D7EC
:10068000F70191878087F8018681898387818A8332
:10069000CE0101962BD7F7019783868381E090E006
:1006A0000F900F90DF91CF911F910F91FF90EF90DE
:1006B00008951F920F920FB60F9211240BB60F924E
:1006C0002F933F934F935F936F937F938F939F935A
:1006D000AF93BF93CF93DF93EF93FF93E6E0F2E006
:1006E0008081918101969183808380819181883E70
:1006F000934059F4EF010088F189E02D199581E0CC
:1007000090E09B838A8319821882FF91EF91DF9199
:10071000CF91BF91AF919F918F917F916F915F9199
:100720004F913F912F910F900BBE0F900FBE0F90E6
:100730001F9018951F920F920FB60F9211240BB6AF
:100740000F922F933F934F935F936F937F938F936A
:100750009F93AF93BF93CF93DF93EF93FF93E6E025
:10076000F2E08081918101969183808380819181E3
:10077000883E934059F4EF010088F189E02D1995E6
:1007800081E090E09B838A8319821882FF91EF9128
:10079000DF91CF91BF91AF919F918F917F916F9199
:1007A0005F914F913F912F910F900BBE0F900FBE15
:1007B0000F901F9018951F920F920FB60F92112451
:1007C0000BB60F922F933F934F935F936F937F934B
:1007D0008F939F93AF93BF93CF93DF93EF93FF9349
:1007E000E6E0F2E0808191810196918380838081AF
:1007F0009181883E934059F4EF010088F189E02D02
:10080000199581E090E09B838A8319821882FF9179
:10081000EF91DF91CF91BF91AF919F918F917F9198
:100820006F915F914F913F912F910F900BBE0F9061
:100830000FBE0F901F9018951F920F920FB60F9238
:1008400011240BB60F922F933F934F935F936F93A7
:100850007F938F939F93AF93BF93CF93DF93EF9348
:10086000FF93E6E0F2E0808191810196918380839D
:1008700080819181883E934059F4EF010088F1898D
:10088000E02D199581E090E09B838A83198218827C
:10089000FF91EF91DF91CF91BF91AF919F918F9198
:1008A0007F916F915F914F913F912F910F900BBE70
:1008B0000F900FBE0F901F9018951F920F920FB6BA
:1008C0000F9211240BB60F922F933F934F935F9388
:1008D0006F937F938F939F93AF93BF93CF93DF9348
:1008E000EF93FF93E6E0F2E080819181019691839E
:1008F000808380819181883E934059F4EF01008884
:10090000F189E02D199581E090E09B838A8319821B
:100910001882FF91EF91DF91CF91BF91AF919F919D
:100920008F917F916F915F914F913F912F910F9098
:100930000BBE0F900FBE0F901F90189581B1816074
:1009400081B982B1816082B92FEF83ED90E32150AC
:1009500080409040E1F700C0000082E18093B80041
:10096000E9EBF0E080818C7F808385E08093BC00A0
:10097000089594EA9093BC009091BC009923E4F709
:100980009091B900987F983091F48093BB0084E8EF
:100990008093BC008091BC008823E4F78091B9006B
:1009A000887F883131F0803231F482E0089580E030
:1009B000089581E0089583E008958093BB0084E862
:1009C0008093BC008091BC008823E4F78091B9003B
:1009D000887F883221F0803321F481E0089580E01F
:1009E000089582E0089584E98093BC008091BC0062
:1009F00084FDFCCF08951DB88FEF8EB982E08093FF
:100A00006A0080E18DBB7894089588E780931C028A
:100A100095DF80D00CD1D0D0C6E0D2E08E859F8506
:100A2000FC011995EC85FD8580E090E01995E09139
:100A30002A02F0912B0241E050E060E07BE480E08C
:100A400090E01995D8DFE0911802F09119021995FC
:100A5000E0912E02F0912F026AE070E088E492E0CB
:100A60001995C0E0D0E00CC0E0910A02F0910B02B1
:100A7000EC0FFD1FAE0160E070E08081B1D02196E7
:100A8000C830D1058CF38091080290910902892B1E
:100A9000D1F292D01092090210920802D4CF1F9284
:100AA0000F920FB60F9211240BB60F922F933F9314
:100AB0004F935F936F937F938F939F93AF93BF9366
:100AC000EF93FF93E0911A02F0911B0280912502AF
:100AD000909126021995FF91EF91BF91AF919F914F
:100AE0008F917F916F915F914F913F912F910F90D7
:100AF0000BBE0F900FBE0F901F901895CF93C82F6D
:100B000080911C0236DF80E058DF8C2F56DF6BDFD0
:100B1000CF9108958EEAF2DF85EDF0DF80E8EEDF19
:100B200088EAECDF8FE3EADF83EDE8DF80E0E6DFF1
:100B300080E4E4DF8DE8E2DF84E1E0DF80E2DEDF15
:100B400080E0DCDF81EADADF88ECD8DF8AEDD6DF0F
:100B500082E1D4DF81E8D2DF8FECD0DF89EDCEDF18
:100B600081EFCCDF8BEDCADF80E4C8DF84EAC6DF2B
:100B700086EAC4DF8FEAC2CF0895CF93C82F809151
:100B80001C02F7DE80E419DF8C2F17DF2CDFCF91FA
:100B90000895CF93C62F8055B1DF8C2F880F880F13
:100BA000880F8870ABDF8C2F90E0969587958F70BB
:100BB000805FA4DFCF910895CF93DF93D0E00BC087
:100BC00060E08D2FE6DFC0E003C080E0D6DFCF5FBE
:100BD000CC23DCF7DF5FD83098F3DF91CF91089515
:100BE0001F93CF93DF93182F862F642FD2DF80912E
:100BF0001C02BFDE80E4E1DEC0E0D0E010C0E12FE7
:100C0000F0E0B097EE0FFF1FEE0FFF1FEE0FFF1F7C
:100C1000EC51FF4FEC0FFD1F8491CFDE2196C830C1
:100C2000D1056CF3E0DEDF91CF911F910895DF9243
:100C3000EF92FF920F931F93CF93DF93BDDFE12CD1
:100C4000F12C6894DD24D5F827C060E08E2DA1DF5B
:100C500000E010E019C0F801ED0DF11DB097EE0FA6
:100C6000FF1FEE0FFF1FEE0FFF1FEC51FF4FEC0FAA
:100C7000FD1F849182DF219602C0C0E0D0E0C83021
:100C8000D1054CF30F5F1F4F00311105B4F380E124
:100C9000D80E8FEFE81AF80A86E0E816F104ACF2F5
:100CA000DF91CF911F910F91FF90EF90DF9008950A
:100CB00082959295907F9827807F98279C01990F25
:100CC000440B550B60E074E284EF90E09ED221501B
:100CD0003109EDE1F2E0318320833093C40080815B
:100CE0008093C500E0ECF0E0808180688083E1ECD7
:100CF000F0E080818C698083E2ECF0E080818660A6
:100D0000808381E090E0089582959295907F982766
:100D1000807F98279C01990F440B550B60E074E28B
:100D200084EF90E072D221503109EDE1F2E031839D
:100D300020833093CC0080818093CD00E8ECF0E0FC
:100D4000808180688083E9ECF0E080818C69808319
:100D5000EAECF0E080818660808381E090E0089595
:100D600082959295907F9827807F98279C01990F74
:100D7000440B550B60E074E284EF90E046D22150C2
:100D80003109EDE1F2E0318320833093D40080819A
:100D90008093D500E0EDF0E0808180688083E1ED14
:100DA000F0E080818C698083E2EDF0E080818660F4
:100DB000808381E090E0089582959295907F9827B6
:100DC000807F98279C01990F440B550B60E074E2DB
:100DD00084EF90E01AD221503109EDE1F2E0318345
:100DE000208330933401808180933501E0E3F1E08A
:100DF000808180688083E1E3F1E080818C69808379
:100E0000E2E3F1E080818660808381E090E00895F4
:100E10000F931F93CF93DF93CDB7DEB728970FB60D
:100E2000F894DEBF0FBECDBF4430510534F5CB0181
:100E300078940DE112E0F8015383428328E0E0E367
:100E4000F2E0DE01119601900D922A95E1F7440F30
:100E5000551FE1E0F0E0EC0FFD1FE40FF51F0190DE
:100E6000F081E02D1995F8011782168215821482FF
:100E70001186108681E090E002C080E090E0289624
:100E80000FB6F894DEBF0FBECDBFDF91CF911F919B
:100E90000F910895E1ECF0E090819E7F9083809324
:100EA000C60081E090E00895E9ECF0E090819E7F3B
:100EB00090838093CE0081E090E00895E1EDF0E032
:100EC00090819E7F90838093D60081E090E008958A
:100ED000E1E3F1E090819E7F90838093360181E091
:100EE00090E00895CF93DF93CDB7DEB728970FB684
:100EF000F894DEBF0FBECDBF98E0E8E3F2E0DE017C
:100F0000119601900D929A95E1F7E0911F02F091F0
:100F10002002EE0FFF1F21E030E02C0F3D1FE20FFB
:100F2000F31F0190F081E02D199581E090E0289663
:100F30000FB6F894DEBF0FBECDBFDF91CF910895FD
:100F4000EF92FF920F931F93CF93DF937C018B015E
:100F5000C0E0D0E006C0F701EC0FFD1F8081C2DFCA
:100F60002196C017D107BCF381E090E0DF91CF91CB
:100F70001F910F91FF90EF9008958091C100EDE1D6
:100F8000F2E082878091C600838782858695817092
:100F9000828782858385848781E090E008958091AF
:100FA000C900EDE1F2E082878091CE0083878285DF
:100FB00086958170828782858385848781E090E031
:100FC00008958091D100EDE1F2E082878091D60012
:100FD00083878285869581708287828583858487D1
:100FE00081E090E0089580913101EDE1F2E08287A7
:100FF000809136018387828586958170828782857C
:101000008385848781E090E008950F931F93CF93A9
:10101000DF93CDB7DEB728970FB6F894DEBF0FBECB
:10102000CDBF88E0E0E4F2E0DE01119601900D9280
:101030008A95E1F70DE112E0D8011296ED91FC914D
:101040001397EE0FFF1F81E090E08C0F9D1FE80FBC
:10105000F91F0190F081E02D1995D8011696ED91B8
:10106000FC91179714968D919C911597E80FF91F95
:101070001C968C911C97808314968D919C9115974A
:10108000079739F4F80186819781918780871582C7
:10109000148281E090E028960FB6F894DEBF0FBE70
:1010A000CDBFDF91CF911F910F9108951F920F92A5
:1010B0000FB60F9211240BB60F922F933F934F93BD
:1010C0005F936F937F938F939F93AF93BF93EF93B0
:1010D000FF939BDFFF91EF91BF91AF919F918F9114
:1010E0007F916F915F914F913F912F910F900BBE28
:1010F0000F900FBE0F901F9018951F920F920FB672
:101100000F9211240BB60F922F933F934F935F933F
:101110006F937F938F939F93AF93BF93EF93FF93BF
:1011200074DFFF91EF91BF91AF919F918F917F916C
:101130006F915F914F913F912F910F900BBE0F9048
:101140000FBE0F901F9018951F920F920FB60F921F
:1011500011240BB60F922F933F934F935F936F938E
:101160007F938F939F93AF93BF93EF93FF934DDF45
:10117000FF91EF91BF91AF919F918F917F916F916F
:101180005F914F913F912F910F900BBE0F900FBE2B
:101190000F901F9018951F920F920FB60F92112467
:1011A0000BB60F922F933F934F935F936F937F9361
:1011B0008F939F93AF93BF93EF93FF9326DFFF919E
:1011C000EF91BF91AF919F918F917F916F915F91BF
:1011D0004F913F912F910F900BBE0F900FBE0F902C
:1011E0001F90189597FB072E16F4009406D077FDF4
:1011F00008D02DD007FC05D03EF4909581959F4FE7
:101200000895709561957F4F0895A1E21A2EAA1B4B
:10121000BB1BFD010DC0AA1FBB1FEE1FFF1FA217A6
:10122000B307E407F50720F0A21BB30BE40BF50BA3
:10123000661F771F881F991F1A9469F7609570952C
:10124000809590959B01AC01BD01CF010895AA1B2B
:10125000BB1B51E107C0AA1FBB1FA617B70710F0A1
:10126000A61BB70B881F991F5A95A9F780959095D3
:10127000BC01CD0108950F931F93CF93DF93869FF9
:101280008001879F100D969F100D1124C8010DD06D
:10129000EC01009721F0A80160E070E044D1CE019C
:1012A000DF91CF911F910F9108950F931F93CF93CB
:1012B000DF938230910510F482E090E0E0915402D7
:1012C000F091550220E030E0A0E0B0E0309719F155
:1012D000408151810281138148175907C8F0841752
:1012E000950769F4109731F012960C9312971396A4
:1012F0001C9327C0009354021093550222C021155D
:10130000310519F04217530718F49A01BD01EF0196
:10131000DF01F801DBCF21153105F9F0281B390B6E
:101320002430310580F48A819B816115710521F09B
:10133000FB019383828304C09093550280935402EF
:10134000FE01329644C0FE01E20FF31F8193919398
:1013500022503109398328833AC0209152023091BA
:101360005302232B41F42091020230910302309367
:101370005302209352022091000230910102211564
:10138000310541F42DB73EB740910402509105025A
:10139000241B350BE0915202F0915302E217F30740
:1013A000A0F42E1B3F0B2817390778F0AC014E5FD5
:1013B0005F4F2417350748F04E0F5F1F50935302BD
:1013C000409352028193919302C0E0E0F0E0CF019C
:1013D000DF91CF911F910F910895CF93DF930097E5
:1013E00009F481C0FC01329713821282A091540249
:1013F000B0915502109781F420813181820F931FA3
:1014000020915202309153022817390751F5F09379
:101410005302E093520267C0ED0120E030E0CE17A6
:10142000DF0740F44A815B819E0141155105F1F0CF
:10143000EA01F5CFD383C28340815181840F951F88
:10144000C817D90759F488819981840F951F02968E
:10145000918380838A819B819383828321153105C7
:1014600029F4F0935502E09354023DC0E901FB8357
:10147000EA8349915991C40FD51FEC17FD0761F418
:1014800080819181840F951F0296E9019983888359
:10149000828193819B838A83E0E0F0E012968D91B4
:1014A0009C911397009719F0FD01DC01F7CF8D9106
:1014B0009C9111979D012E5F3F4F820F931F2091AA
:1014C0005202309153022817390769F4309729F4F2
:1014D000109255021092540202C013821282B093ED
:1014E0005302A0935202DF91CF910895FC01882707
:1014F0009927E89421912032E9F3293010F02E3019
:10150000C8F32B3239F02D3231F4689403C012D075
:10151000820F911D219120532A30C8F31EF490951B
:1015200081959F4F0895DC0101C06D93415050405B
:10153000E0F708957AE0979F902D879F802D910D79
:0815400011240895F894FFCF77
:10154800000056022000000000000000000000001B
:10155800000070021302280299021C0378000000A0
:101568000000000000000000000008077207A00744
:1015780058068406B006DC064A0754075E07680763
:10158800BD07CF07E107F30730313A31303A32303F
:02159800000051
:00000001FF
