:10000000F1C100000EC200000CC200000AC20000D4
:1000100008C2000064C5000004C2000002C2000063
:1000200000C20000FEC10000FCC10000FAC10000D7
:10003000F8C10000C5C30000F4C10000F2C1000017
:10004000F0C1000079C30000ECC10000EAC100006B
:10005000E8C100002DC30000E4C10000E2C10000BF
:10006000E0C1000025C70000DCC10000E1C70000BE
:10007000D8C10000D6C10000D4C10000D2C1000028
:10008000E3C30000CEC10000CCC10000CAC1000023
:100090003FC70000C6C10000C4C10000C2C10000CB
:1000A000C0C10000BEC1000013C40000BAC10000FE
:1000B000B8C10000B6C10000B4C10000B2C1000068
:1000C000B0C10000AEC10000ACC1000051C70000CB
:1000D000A8C10000A6C100007BC70000A2C10000AB
:1000E000A0C10000000000000000000000005F0050
:1000F00000000000000007000700000000147F144B
:100100007F14000000242A7F2A1200000023130815
:1001100064620000003649552250000000000503CB
:1001200000000000001C2241000000000041221CD1
:100130000000000000082A1C2A0800000008083EF1
:100140000808000000A06000000000000008080887
:100150000808000000606000000000000020100897
:1001600004020000003E5149453E00000000427F6D
:100170004000000000625149494600000022414908
:1001800049360000001814127F1000000027454572
:1001900045390000003C4A4949300000000171091E
:1001A0000503000000364949493600000006494968
:1001B000291E000000003636000000000000AC6C74
:1001C0000000000000081422410000000014141474
:1001D0001414000000412214080000000002015124
:1001E0000906000000324979413E0000007E0909FD
:1001F000097E0000007F494949360000003E414128
:1002000041220000007F4141221C0000007F49493B
:1002100049410000007F090909010000003E4141F9
:1002200051720000007F0808087F000000417F41F4
:1002300000000000002040413F010000007F081442
:1002400022410000007F404040400000007F020C3F
:10025000027F0000007F0408107F0000003E414143
:10026000413E0000007F090909060000003E41519F
:10027000215E0000007F0919294600000026494937
:10028000493200000001017F01010000003F4040B1
:10029000403F0000001F2040201F0000003F40386A
:1002A000403F00000063140814630000000304785A
:1002B000040300000061514945430000007F4141B3
:1002C0000000000000020408102000000041417FEF
:1002D0000000000000040201020400000080808091
:1002E000808000000001020400000000002054543F
:1002F00054780000007F48444438000000384444EB
:100300002800000000384444487F0000003854545E
:100310005418000000087E09020000000018A4A480
:10032000A47C0000007F08040478000000007D0029
:10033000000000000080847D00000000007F102885
:100340004400000000417F4000000000007C0418D1
:1003500004780000007C08047C000000003844445D
:100360003800000000FC2424180000000018242499
:10037000FC00000000007C08040000000048545409
:100380002400000000047F4400000000003C4040C6
:100390007C000000001C2040201C0000003C40307D
:1003A000403C00000044281028440000001CA0A08D
:1003B0007C000000004464544C44000000083641B6
:1003C0000000000000007F0000000000004136082F
:1003D000000000000002010102010000000205050A
:1003E0000200000011241FBECFEFD1E2DEBFCDBF5F
:1003F00000E00CBF12E0A0E0B2E0EEECF3E100E0C0
:100400000BBF02C007900D92A437B107D9F722E0C5
:10041000A4E7B2E001C01D92A939B207E1F703D306
:10042000D4C7EECDE6E0F2E0178216821186108680
:10043000138612861182108281E090E0938382837A
:100440000288F389E02D199581E090E0089580916C
:100450000C0290910D028B33910539F580910E02BB
:1004600090910F028B339105B1F48091100290911D
:1004700011028731910529F4109211021092100295
:1004800005C00196909311028093100210920F0202
:1004900010920E0205C0019690930F0280930E02F7
:1004A00010920D0210920C0205C0019690930D025D
:1004B00080930C02E0911802F0911902199581E0E5
:1004C00090E0089582E084BD93E095BD99EF97BDDB
:1004D00098BD80936E0085BB81E090E00895CF9336
:1004E000DF93CDB7DEB72A970FB6F894DEBF0FBE05
:1004F000CDBF7894FE0131962AE0DF011D922A9546
:10050000E9F722E632E03A832983880F991FE80F42
:10051000F91F0190F081E02D199581E090E02A9675
:100520000FB6F894DEBF0FBECDBFDF91CF91089517
:10053000CF93DF9380910A0290910B02892B49F4AB
:1005400061E070E08AE090E0CAD590930B0280935E
:100550000A0280911002909111028A30910564F094
:100560002AE030E0B90172D540E3480FCB01B90170
:100570006DD5D0E3D80F06C06AE070E067D540E3E0
:10058000480FD0E380910E0290910F028A309105BE
:1005900064F0EAE0F0E0BF0159D530E3380FCB0159
:1005A000BF0154D5C0E3C80F06C06AE070E04ED565
:1005B00030E3380FC0E380910C0290910D028A3035
:1005C00091055CF0EAE0F0E0BF0140D520E3280FA0
:1005D000CB01BF013BD5805D06C06AE070E036D537
:1005E00020E3280F80E3E6E0F2E0A481B581DC930C
:1005F000A481B58111964C93A481B5819AE312969A
:100600009C93A481B5811396CC93A481B581149653
:100610003C93A481B58115969C930480F581E02DCF
:10062000868327838AE080878DE0818781E090E060
:10063000DF91CF910895EF92FF920F931F93CF9385
:10064000DF931F921F92CDB7DEB78C01FC01808132
:10065000898381818A83CE0101967CD60F2EF6E0B4
:10066000EF2EF2E0FF2EF02DF70193878287F8013D
:100670008381898384818A83CE0101966BD6F701B9
:1006800091878087F8018681898387818A83CE015B
:10069000019660D6F7019783868381E090E00F9002
:1006A0000F90DF91CF911F910F91FF90EF900895E0
:1006B0001F920F920FB60F9211240BB60F922F9329
:1006C0003F934F935F936F937F938F939F93AF93DA
:1006D000BF93CF93DF93EF93FF93E6E0F2E0808147
:1006E000918101969183808380819181883E93409E
:1006F00071F4EF010288F389E02D1995E889F989F1
:10070000199581E090E09B838A8319821882FF917A
:10071000EF91DF91CF91BF91AF919F918F917F9199
:100720006F915F914F913F912F910F900BBE0F9062
:100730000FBE0F901F9018951F920F920FB60F9239
:1007400011240BB60F922F933F934F935F936F93A8
:100750007F938F939F93AF93BF93CF93DF93EF9349
:10076000FF93E6E0F2E0808191810196918380839E
:1007700080819181883E934071F4EF010288F38972
:10078000E02D1995E889F989199581E090E09B831E
:100790008A8319821882FF91EF91DF91CF91BF91E7
:1007A000AF919F918F917F916F915F914F913F9109
:1007B0002F910F900BBE0F900FBE0F901F901895AA
:1007C0001F920F920FB60F9211240BB60F922F9318
:1007D0003F934F935F936F937F938F939F93AF93C9
:1007E000BF93CF93DF93EF93FF93E6E0F2E0808136
:1007F000918101969183808380819181883E93408D
:1008000071F4EF010288F389E02D1995E889F989DF
:10081000199581E090E09B838A8319821882FF9169
:10082000EF91DF91CF91BF91AF919F918F917F9188
:100830006F915F914F913F912F910F900BBE0F9051
:100840000FBE0F901F9018951F920F920FB60F9228
:1008500011240BB60F922F933F934F935F936F9397
:100860007F938F939F93AF93BF93CF93DF93EF9338
:10087000FF93E6E0F2E0808191810196918380838D
:1008800080819181883E934071F4EF010288F38961
:10089000E02D1995E889F989199581E090E09B830D
:1008A0008A8319821882FF91EF91DF91CF91BF91D6
:1008B000AF919F918F917F916F915F914F913F91F8
:1008C0002F910F900BBE0F900FBE0F901F90189599
:1008D0001F920F920FB60F9211240BB60F922F9307
:1008E0003F934F935F936F937F938F939F93AF93B8
:1008F000BF93CF93DF93EF93FF93E6E0F2E0808125
:10090000918101969183808380819181883E93407B
:1009100071F4EF010288F389E02D1995E889F989CE
:10092000199581E090E09B838A8319821882FF9158
:10093000EF91DF91CF91BF91AF919F918F917F9177
:100940006F915F914F913F912F910F900BBE0F9040
:100950000FBE0F901F90189581B1816081B982B14F
:10096000816082B92FEF83ED90E321508040904069
:10097000E1F700C0000082E18093B800E9EBF0E00D
:1009800080818C7F808385E08093BC00089594EA09
:100990009093BC009091BC009923E4F79091B9002A
:1009A000987F983091F48093BB0084E88093BC00DA
:1009B0008091BC008823E4F78091B900887F88315A
:1009C00031F0803231F482E0089580E0089581E0D2
:1009D000089583E008958093BB0084E88093BC0071
:1009E0008091BC008823E4F78091B900887F883229
:1009F00021F0803321F481E0089580E0089582E0C1
:100A0000089584E98093BC008091BC0084FDFCCFF4
:100A100008951DB88FEF8EB982E080936A0080E15F
:100A20008DBB7894089588E780931C0295DF77D07A
:100A300003D1C7D0C6E0D2E08E859F85FC01199511
:100A4000EC85FD8580E090E0199540E050E060E0A5
:100A50007BE480E090E09BD1DCDF85E292E0C9D1CD
:100A6000FFEF23ED80E3F15020408040E1F700C02C
:100A70000000E0911802F09119021995C0E0D0E051
:100A80000EC087E7B1D1E0910A02F0910B02EC0FA2
:100A9000FD1FAE0160E070E08081A7D02196C830D4
:100AA000D1057CF38091740290917502892B59F0E5
:100AB000E0911A02F0911B028DE792E019951092D5
:100AC0007502109274028091080290910902892B9C
:100AD00081F277D01092090210920802CACF1F92B9
:100AE0000F920FB60F9211248F939F9381E090E0A5
:100AF00090937502809374029F918F910F900FBE17
:100B00000F901F901895CF93C82F80911C023FDF44
:100B100080E061DF8C2F5FDF74DFCF9108958EEA74
:100B2000F2DF85EDF0DF80E8EEDF88EAECDF8FE3CF
:100B3000EADF83EDE8DF80E0E6DF80E4E4DF8DE8F4
:100B4000E2DF84E1E0DF80E2DEDF80E0DCDF81EA1B
:100B5000DADF88ECD8DF8AEDD6DF82E1D4DF81E806
:100B6000D2DF8FECD0DF89EDCEDF81EFCCDF8BEDF4
:100B7000CADF80E4C8DF84EAC6DF86EAC4DF8FEA22
:100B8000C2CF0895CF93C82F80911C0200DF80E46C
:100B900022DF8C2F20DF35DFCF910895CF93C62F32
:100BA0008055B1DF8C2F880F880F880F8870ABDFDE
:100BB0008C2F90E0969587958F70805FA4DFCF9102
:100BC0000895CF93DF93D0E00BC060E08D2FE6DF78
:100BD000C0E003C080E0D6DFCF5FCC23DCF7DF5F6F
:100BE000D83098F3DF91CF9108951F93CF93DF937F
:100BF000182F862F642FD2DF80911C02C8DE80E47C
:100C0000EADEC0E0D0E010C0E12FF0E0B097EE0FD8
:100C1000FF1FEE0FFF1FEE0FFF1FEC51FF4FEC0FFA
:100C2000FD1F8491D8DE2196C830D1056CF3E9DE32
:100C3000DF91CF911F910895DF92EF92FF920F9372
:100C40001F93CF93DF93BDDFE12CF12C6894DD245B
:100C5000D5F827C060E08E2DA1DF00E010E019C0BC
:100C6000F801ED0DF11DB097EE0FFF1FEE0FFF1F06
:100C7000EE0FFF1FEC51FF4FEC0FFD1F849182DF41
:100C8000219602C0C0E0D0E0C830D1054CF30F5F20
:100C90001F4F00311105B4F380E1D80E8FEFE81A31
:100CA000F80A86E0E816F104ACF2DF91CF911F91CB
:100CB0000F91FF90EF90DF9008958091C600809390
:100CC0007C0281E090E008958091C90080937A02CF
:100CD0009091CE0090937B028695817080937A02EA
:100CE00090937C0281E090E008958091D100809300
:100CF0007A029091D60090937B02869581708093C2
:100D00007A0290937C0281E090E008958091310115
:100D100080937A029091360190937B028695817040
:100D200080937A0290937C0281E090E0089582950E
:100D30009295907F9827807F98279C01990F440B6C
:100D4000550B60E074E284EF90E093D1C901019704
:100D50009093920280939102DA01C9010197A1094F
:100D6000B109892F9A2FAB2FBB278093C500215043
:100D70002093C400E1ECF0E08081886D8083E2EC98
:100D8000F0E080818660808381E090E008954430C7
:100D9000510594F4CB0178945093940240939302BC
:100DA000C6DF109277021092760210927D021092A6
:100DB000870281E090E0089580E090E0089581E36B
:100DC0008093C6008091780290917902892B49F432
:100DD00081E38093C60081E090E090937902809354
:100DE000780281E090E0089583E7E9DF81E090E018
:100DF00008950F931F93CF93DF938C01C0E0D0E051
:100E000002C0F2DF2196F801EC0FFD1F80818111F5
:100E1000F8CF81E090E0DF91CF911F910F9108957D
:100E2000CF93DF93CDB7DEB728970FB6F894DEBF28
:100E30000FBECDBF88E0EDE1F2E0DE01119601903A
:100E40000D928A95E1F7E0919302F0919402EE0FF2
:100E5000FF1F81E090E08C0F9D1FE80FF91F0190AC
:100E6000F081E02D1995E0917602F0917702E95733
:100E7000FD4F80917C028083809176029091770271
:100E80000A9759F44AE050E067E872E08DE792E093
:100E900085D2109277021092760281E090E0289637
:100EA0000FB6F894DEBF0FBECDBFDF91CF9108958E
:100EB0001F920F920FB60F9211240BB60F922F9321
:100EC0003F934F935F936F937F938F939F93AF93D2
:100ED000BF93EF93FF93A4DF809176029091770206
:100EE00001969093770280937602FF91EF91BF91E4
:100EF000AF919F918F917F916F915F914F913F91B2
:100F00002F910F900BBE0F900FBE0F901F90189552
:100F10001F920F920FB60F9211240BB60F922F93C0
:100F20003F934F935F936F937F938F939F93AF9371
:100F3000BF93EF93FF9374DF8091760290917702D5
:100F400001969093770280937602FF91EF91BF9183
:100F5000AF919F918F917F916F915F914F913F9151
:100F60002F910F900BBE0F900FBE0F901F901895F2
:100F70001F920F920FB60F9211240BB60F922F9360
:100F80003F934F935F936F937F938F939F93AF9311
:100F9000BF93EF93FF9344DF8091760290917702A5
:100FA00001969093770280937602FF91EF91BF9123
:100FB000AF919F918F917F916F915F914F913F91F1
:100FC0002F910F900BBE0F900FBE0F901F90189592
:100FD0001F920F920FB60F9211240BB60F922F9300
:100FE0003F934F935F936F937F938F939F93AF93B1
:100FF000BF93EF93FF9314DF809176029091770275
:1010000001969093770280937602FF91EF91BF91C2
:10101000AF919F918F917F916F915F914F913F9190
:101020002F910F900BBE0F900FBE0F901F90189531
:101030001F920F920FB60F92112410927902109204
:1010400078020F900FBE0F901F90189597FB072EF8
:1010500016F4009406D077FD08D02DD007FC05D0FB
:101060003EF4909581959F4F0895709561957F4FBF
:101070000895A1E21A2EAA1BBB1BFD010DC0AA1FD9
:10108000BB1FEE1FFF1FA217B307E407F50720F0F1
:10109000A21BB30BE40BF50B661F771F881F991F6C
:1010A0001A9469F760957095809590959B01AC01B5
:1010B000BD01CF010895AA1BBB1B51E107C0AA1FA8
:1010C000BB1FA617B70710F0A61BB70B881F991FE9
:1010D0005A95A9F780959095BC01CD0108950F937D
:1010E0001F93CF93DF93869F8001879F100D969F5C
:1010F000100D1124C8010DD0EC01009721F0A801BA
:1011000060E070E044D1CE01DF91CF911F910F914B
:1011100008950F931F93CF93DF938230910510F4BE
:1011200082E090E0E0919702F091980220E030E0B8
:10113000A0E0B0E0309719F1408151810281138124
:1011400048175907C8F08417950769F4109731F0CC
:1011500012960C93129713961C9327C00093970234
:101160001093980222C02115310519F04217530738
:1011700018F49A01BD01EF01DF01F801DBCF211561
:101180003105F9F0281B390B2430310580F48A81B0
:101190009B816115710521F0FB019383828304C05B
:1011A0009093980280939702FE01329644C0FE010C
:1011B000E20FF31F819391932250310939832883E1
:1011C0003AC02091950230919602232B41F4209150
:1011D00002023091030230939602209395022091EF
:1011E0000002309101022115310541F42DB73EB7BF
:1011F0004091040250910502241B350BE0919502A9
:10120000F0919602E217F307A0F42E1B3F0B28176C
:10121000390778F0AC014E5F5F4F2417350748F06F
:101220004E0F5F1F509396024093950281939193C6
:1012300002C0E0E0F0E0CF01DF91CF911F910F916C
:101240000895CF93DF93009709F481C0FC01329792
:1012500013821282A0919702B0919802109781F4A4
:1012600020813181820F931F209195023091960247
:101270002817390751F5F0939602E093950267C05D
:10128000ED0120E030E0CE17DF0740F44A815B81BA
:101290009E0141155105F1F0EA01F5CFD383C283D8
:1012A00040815181840F951FC817D90759F488814F
:1012B0009981840F951F0296918380838A819B81F7
:1012C000938382832115310529F4F0939802E093EA
:1012D00097023DC0E901FB83EA8349915991C40F0C
:1012E000D51FEC17FD0761F480819181840F951F54
:1012F0000296E90199838883828193819B838A8303
:10130000E0E0F0E012968D919C911397009719F010
:10131000FD01DC01F7CF8D919C9111979D012E5F0E
:101320003F4F820F931F209195023091960228170C
:10133000390769F4309729F41092980210929702B5
:1013400002C013821282B0939602A0939502DF919D
:10135000CF910895FC0188279927E89421912032A4
:10136000E9F3293010F02E30C8F32B3239F02D324A
:1013700031F4689403C021D0820F911D2191205334
:101380002A30C8F31EF4909581959F4F0895DC0193
:1013900001C06D9341505040E0F70895FB01DC011E
:1013A0004150504048F001900D920020C9F701C013
:1013B0001D9241505040E0F708957AE0979F902D9C
:0E13C000879F802D910D11240895F894FFCF82
:1013CE000000990220000000000000000000000054
:1013DE0000006F021202270298021B03785D06645A
:1013EE000675068606546F20736574207468652032
:1013FE00636C6F636B2C20656E7465722061207454
:10140E00696D6520696E2074686520666F726D6106
:10141E00743A202268683A6D6D3A73732220616EB9
:10142E0064207072657373207468652062757474BD
:04143E006F6E2E009F
:00000001FF
