:10000000F1C100000FC200000DC200000BC20000D1
:1000100009C2000007C2000005C2000003C20000C0
:1000200001C20000FFC10000FDC10000FBC10000D3
:10003000F9C100006BC30000F5C10000F3C100006E
:10004000F1C1000022C30000EDC10000EBC10000BF
:10005000E9C10000D9C20000E5C10000E3C1000011
:10006000E1C10000C7C70000DDC10000DBC1000026
:10007000D9C10000D7C10000D5C10000D3C1000024
:1000800086C30000CFC10000CDC10000CBC100007D
:10009000D8C70000C7C10000C5C10000C3C100002F
:1000A000C1C10000BFC10000B3C30000BBC100005C
:1000B000B9C10000B7C10000B5C10000B3C1000064
:1000C000B1C10000AFC10000ADC10000E1C7000038
:1000D000A9C10000A7C100000C946F08A3C10000D3
:1000E000A1C10000000000000000000000005F004F
:1000F00000000000000007000700000000147F144B
:100100007F14000000242A7F2A1200000023130815
:1001100064620000003649552250000000000503CB
:1001200000000000001C2241000000000041221CD1
:100130000000000000082A1C2A0800000008083EF1
:100140000808000000A06000000000000008080887
:100150000808000000606000000000000020100897
:1001600004020000003E5149453E00000000427F6D
:100170004000000000625149494600000022414908
:1001800049360000001814127F1000000027454572
:1001900045390000003C4A4949300000000171091E
:1001A0000503000000364949493600000006494968
:1001B000291E000000003636000000000000AC6C74
:1001C0000000000000081422410000000014141474
:1001D0001414000000412214080000000002015124
:1001E0000906000000324979413E0000007E0909FD
:1001F000097E0000007F494949360000003E414128
:1002000041220000007F4141221C0000007F49493B
:1002100049410000007F090909010000003E4141F9
:1002200051720000007F0808087F000000417F41F4
:1002300000000000002040413F010000007F081442
:1002400022410000007F404040400000007F020C3F
:10025000027F0000007F0408107F0000003E414143
:10026000413E0000007F090909060000003E41519F
:10027000215E0000007F0919294600000026494937
:10028000493200000001017F01010000003F4040B1
:10029000403F0000001F2040201F0000003F40386A
:1002A000403F00000063140814630000000304785A
:1002B000040300000061514945430000007F4141B3
:1002C0000000000000020408102000000041417FEF
:1002D0000000000000040201020400000080808091
:1002E000808000000001020400000000002054543F
:1002F00054780000007F48444438000000384444EB
:100300002800000000384444487F0000003854545E
:100310005418000000087E09020000000018A4A480
:10032000A47C0000007F08040478000000007D0029
:10033000000000000080847D00000000007F102885
:100340004400000000417F4000000000007C0418D1
:1003500004780000007C08047C000000003844445D
:100360003800000000FC2424180000000018242499
:10037000FC00000000007C08040000000048545409
:100380002400000000047F4400000000003C4040C6
:100390007C000000001C2040201C0000003C40307D
:1003A000403C00000044281028440000001CA0A08D
:1003B0007C000000004464544C44000000083641B6
:1003C0000000000000007F0000000000004136082F
:1003D000000000000002010102010000000205050A
:1003E0000200000011241FBECFEFD1E2DEBFCDBF5F
:1003F00000E00CBF12E0A0E0B2E0EEEAF9E100E0BC
:100400000BBF02C007900D92AC34B107D9F722E0C0
:10041000ACE4B2E001C01D92A035B207E1F796D27C
:100420000C94D50CEDCDE6E0F2E017821682118631
:100430001086138612861182108281E090E09383E9
:10044000828315821482089580910C0290910D028E
:100450008B33910539F580910E0290910F028B3309
:100460009105B1F4809110029091110287319105AC
:1004700029F4109211021092100205C00196909377
:1004800011028093100210920F0210920E0205C00A
:10049000019690930F0280930E0210920D0210921B
:1004A0000C0205C0019690930D0280930C0281E02E
:1004B00090E0089582E084BD95E095BD9BE997BDED
:1004C00098BD80936E0085BB81E090E00895109206
:1004D000800085E080938100109289008BE98093F1
:1004E00088008BE990E090938B0080938A00909332
:1004F0008D0080938C0082E080936F0086BB81E04A
:1005000090E0089582E08093B00095E09093B10070
:100510009BE99093B3009093B4008093700087BBE5
:1005200081E090E008951092900085E08093910022
:100530008BE990E0909399008093980090939B00B2
:1005400080939A0090939D0080939C0082E080931A
:10055000710088BB81E090E008951092A00085E0D2
:100560008093A1008BE990E09093A9008093A8006C
:100570009093AB008093AA009093AD008093AC0061
:1005800082E08093720089BB81E090E00895CF9370
:10059000DF93CDB7DEB72A970FB6F894DEBF0FBE54
:1005A000CDBF78942AE0E6E2F2E0DE0111960190F8
:1005B0000D922A95E1F7880F991FE1E0F0E0EC0F2A
:1005C000FD1FE80FF91F0190F081E02D199581E0E2
:1005D00090E02A960FB6F894DEBF0FBECDBFDF9134
:1005E000CF91089580910A0290910B02892B49F4D2
:1005F00061E070E08AE090E0BBD590930B028093BD
:100600000A0281E090E008951F920F920FB60F92B8
:1006100011240BB60F922F933F934F935F936F93D9
:100620007F938F939F93AF93BF93CF93DF93EF937A
:10063000FF93E6E0F2E080819181019691838083CF
:10064000808191818436910559F4EF010088F18908
:10065000E02D199581E090E09B838A8319821882AE
:10066000FF91EF91DF91CF91BF91AF919F918F91CA
:100670007F916F915F914F913F912F910F900BBEA2
:100680000F900FBE0F901F9018951F920F920FB6EC
:100690000F9211240BB60F922F933F934F935F93BA
:1006A0006F937F938F939F93AF93BF93CF93DF937A
:1006B000EF93FF93E6E0F2E08081918101969183D0
:1006C0008083808191818436910559F4EF010088FF
:1006D000F189E02D199581E090E09B838A8319824E
:1006E0001882FF91EF91DF91CF91BF91AF919F91D0
:1006F0008F917F916F915F914F913F912F910F90CB
:100700000BBE0F900FBE0F901F9018951F920F9267
:100710000FB60F9211240BB60F922F933F934F9366
:100720005F936F937F938F939F93AF93BF93CF9379
:10073000DF93EF93FF93E6E0F2E0808191810196F1
:1007400091838083808191818436910559F4EF01F2
:100750000088F189E02D199581E090E09B838A83E0
:1007600019821882FF91EF91DF91CF91BF91AF91E4
:100770009F918F917F916F915F914F913F912F91B9
:100780000F900BBE0F900FBE0F901F9018951F92E9
:100790000F920FB60F9211240BB60F922F933F9327
:1007A0004F935F936F937F938F939F93AF93BF9379
:1007B000CF93DF93EF93FF93E6E0F2E080819181A6
:1007C000019691838083808191818436910559F4CB
:1007D000EF010088F189E02D199581E090E09B837D
:1007E0008A8319821882FF91EF91DF91CF91BF9197
:1007F000AF919F918F917F916F915F914F913F91B9
:100800002F910F900BBE0F900FBE0F901F90189559
:100810001F920F920FB60F9211240BB60F922F93C7
:100820003F934F935F936F937F938F939F93AF9378
:10083000BF93CF93DF93EF93FF93E6E0F2E08081E5
:100840009181019691838083808191818436910585
:1008500059F4EF010088F189E02D199581E090E0CD
:100860009B838A8319821882FF91EF91DF91CF9148
:10087000BF91AF919F918F917F916F915F914F91B8
:100880003F912F910F900BBE0F900FBE0F901F90B6
:10089000189581B1816081B982B1816082B92FEFF1
:1008A00083ED90E3215080409040E1F700C00000CC
:1008B00082E18093B800E9EBF0E080818C7F808357
:1008C00085E08093BC00089594EA9093BC009091D9
:1008D000BC009923E4F79091B900987F983091F487
:1008E0008093BB0084E88093BC008091BC00882387
:1008F000E4F78091B900887F883131F0803231F49B
:1009000082E0089580E0089581E0089583E00895ED
:100910008093BB0084E88093BC008091BC00882356
:10092000E4F78091B900887F883221F0803321F488
:1009300081E0089580E0089582E0089584E980933D
:10094000BC008091BC0084FDFCCF0895CF93DF9361
:10095000CDB7DEB72A970FB6F894DEBF0FBECDBF76
:1009600088E780931A0295DF97D051D1E7D006E04F
:1009700012E0D8011E968D919C911F97FC0119954C
:10098000D8011C96ED91FC911D9782E090E019959D
:10099000E0912202F091230241E050E060E07BE42C
:1009A00080E090E01995FE0131968AE0DF011D920A
:1009B0008A95E9F780E28983E0912402F09125028B
:1009C00083E7199506E012E0F80183858F9382850D
:1009D0008F930F2EF8E4CF2EF2E0DF2EF02DDF9272
:1009E000CF929E012F5F3F4F79013F932F9302D506
:1009F00040E050E060E070E0C701DBD042E050E052
:100A000060E070E08AE3AED0D80119968C91199716
:100A10008F9318968C918F93DF92CF92FF92EF92E3
:100A2000E9D443E050E060E070E0C701C2D045E0A7
:100A300050E060E070E08AE395D0F80187818F9301
:100A400086818F93DF92CF92FF92EF92D3D446E0CC
:100A500050E060E070E0C701ACD0D80112968D91F3
:100A60009C9113970FB6F894DEBF0FBECDBF892BB4
:100A700009F4A2CF63D010920902109208029CCF11
:100A8000CF93C82F80911A021FDF80E041DF8C2FA7
:100A90003FDF54DFCF9108958EEAF2DF85EDF0DF7E
:100AA00080E8EEDF88EAECDF8FE3EADF83EDE8DF62
:100AB00080E0E6DF80E4E4DF8DE8E2DF84E1E0DF90
:100AC00080E2DEDF80E0DCDF81EADADF88ECD8DF9D
:100AD0008AEDD6DF82E1D4DF81E8D2DF8FECD0DF90
:100AE00089EDCEDF81EFCCDF8BEDCADF80E4C8DF9C
:100AF00084EAC6DF86EAC4DF8FEAC2CF0895CF93C7
:100B0000C82F80911A02E0DE80E402DF8C2F00DF24
:100B100015DFCF910895CF93C62F8055B1DF8C2F6D
:100B2000880F880F880F8870ABDF8C2F90E0969528
:100B300087958F70805FA4DFCF910895CF93DF9367
:100B4000D0E00BC060E08D2FE6DFC0E003C080E0A6
:100B5000D6DFCF5FCC23DCF7DF5FD83098F3DF91AF
:100B6000CF9108951F93CF93DF93182F862F642F73
:100B7000D2DF80911A02A8DE80E4CADEC0E0D0E0B5
:100B800010C0E12FF0E0B097EE0FFF1FEE0FFF1F38
:100B9000EE0FFF1FEC51FF4FEC0FFD1F8491B8DEED
:100BA0002196C830D1056CF3C9DEDF91CF911F913A
:100BB00008950F931F93CF93DF93EC01862F062F99
:100BC000642FA9DF1CC08A3029F460E081E0800F27
:100BD000A2DF219610E010C0E881F0E0B097EE0FA0
:100BE000FF1FEE0FFF1FEE0FFF1FEC51FF4FE10F36
:100BF000F11D849184DF1F5F183070F32196888186
:100C00008111E1CFDF91CF911F910F910895DF9274
:100C1000EF92FF920F931F93CF93DF938FDFE12C1F
:100C2000F12C6894DD24D5F827C060E08E2D73DFA9
:100C300000E010E019C0F801ED0DF11DB097EE0FC6
:100C4000FF1FEE0FFF1FEE0FFF1FEC51FF4FEC0FCA
:100C5000FD1F849154DF219602C0C0E0D0E0C8306F
:100C6000D1054CF30F5F1F4F00311105B4F380E144
:100C7000D80E8FEFE81AF80A86E0E816F104ACF215
:100C8000DF91CF911F910F91FF90EF90DF9008952A
:100C900082959295907F9827807F98279C01990F45
:100CA000440B550B60E074E284EF90E03FD221509A
:100CB0003109EBE1F2E0318320833093C40080817D
:100CC0008093C500E0ECF0E0808180688083E1ECF7
:100CD000F0E080818C698083E2ECF0E080818660C6
:100CE000808381E090E0089582959295907F982787
:100CF000807F98279C01990F440B550B60E074E2AC
:100D000084EF90E013D221503109EBE1F2E031831E
:100D100020833093CC0080818093CD00E8ECF0E01C
:100D2000808180688083E9ECF0E080818C69808339
:100D3000EAECF0E080818660808381E090E00895B5
:100D400082959295907F9827807F98279C01990F94
:100D5000440B550B60E074E284EF90E0E7D1215042
:100D60003109EBE1F2E0318320833093D4008081BC
:100D70008093D500E0EDF0E0808180688083E1ED34
:100D8000F0E080818C698083E2EDF0E08081866014
:100D9000808381E090E0089582959295907F9827D6
:100DA000807F98279C01990F440B550B60E074E2FB
:100DB00084EF90E0BBD121503109EBE1F2E03183C7
:100DC000208330933401808180933501E0E3F1E0AA
:100DD000808180688083E1E3F1E080818C69808399
:100DE000E2E3F1E080818660808381E090E0089515
:100DF000CF93DF93CDB7DEB728970FB6F894DEBF59
:100E00000FBECDBF44305105F4F4CB01789450931C
:100E10001E0240931D0228E0E0E3F2E0DE0111969D
:100E200001900D922A95E1F7440F551FE1E0F0E0A3
:100E3000EC0FFD1FE40FF51F0190F081E02D1995D7
:100E400081E090E002C080E090E028960FB6F89430
:100E5000DEBF0FBECDBFDF91CF910895E1ECF0E092
:100E600090819E7F90838093C60081E090E00895FA
:100E7000E9ECF0E090819E7F90838093CE0081E04A
:100E800090E00895E1EDF0E090819E7F9083809363
:100E9000D60081E090E00895E1E3F1E090819E7F4B
:100EA00090838093360181E090E00895CF93DF93A3
:100EB000CDB7DEB728970FB6F894DEBF0FBECDBF13
:100EC00098E0E8E3F2E0DE01119601900D929A9528
:100ED000E1F7E0911D02F0911E02EE0FFF1F21E0ED
:100EE00030E02C0F3D1FE20FF31F0190F081E02D49
:100EF000199581E090E028960FB6F894DEBF0FBEFA
:100F0000CDBFDF91CF9108958091C100EBE1F2E078
:100F100084838091C60085838481869581708483D3
:100F200084818581868381E090E008958091C90065
:100F3000EBE1F2E084838091CE0085838481869505
:100F40008170848384818581868381E090E0089527
:100F50008091D100EBE1F2E084838091D60085831B
:100F6000848186958170848384818581868381E0F4
:100F700090E0089580913101EBE1F2E0848380916B
:100F800036018583848186958170848384818581FF
:100F9000868381E090E00895CF93DF93CDB7DEB7ED
:100FA00028970FB6F894DEBF0FBECDBF88E0E0E40F
:100FB000F2E0DE01119601900D928A95E1F7E09141
:100FC0001D02F0911E02EE0FFF1F81E090E08C0FDA
:100FD0009D1FE80FF91F0190F081E02D199581E028
:100FE00090E028960FB6F894DEBF0FBECDBFDF911C
:100FF000CF9108951F920F920FB60F9211240BB646
:101000000F922F933F934F935F936F937F938F93A1
:101010009F93AF93BF93EF93FF93BEDFFF91EF9149
:10102000BF91AF919F918F917F916F915F914F9100
:101030003F912F910F900BBE0F900FBE0F901F90FE
:1010400018951F920F920FB60F9211240BB60F92A4
:101050002F933F934F935F936F937F938F939F93C0
:10106000AF93BF93EF93FF9397DFFF91EF91BF9102
:10107000AF919F918F917F916F915F914F913F9130
:101080002F910F900BBE0F900FBE0F901F901895D1
:101090001F920F920FB60F9211240BB60F922F933F
:1010A0003F934F935F936F937F938F939F93AF93F0
:1010B000BF93EF93FF9370DFFF91EF91BF91AF91DB
:1010C0009F918F917F916F915F914F913F912F9160
:1010D0000F900BBE0F900FBE0F901F9018951F9290
:1010E0000F920FB60F9211240BB60F922F933F93CE
:1010F0004F935F936F937F938F939F93AF93BF9320
:10110000EF93FF9349DFFF91EF91BF91AF919F91D3
:101110008F917F916F915F914F913F912F910F90A0
:101120000BBE0F900FBE0F901F901895A1E21A2EC4
:10113000AA1BBB1BFD010DC0AA1FBB1FEE1FFF1F7B
:10114000A217B307E407F50720F0A21BB30BE40BCB
:10115000F50B661F771F881F991F1A9469F7609512
:101160007095809590959B01AC01BD01CF010895CC
:101170000F931F93CF93DF93869F8001879F100D5E
:10118000969F100D1124C8010DD0EC01009721F09D
:10119000A80160E070E027D1CE01DF91CF911F91CF
:1011A0000F9108950F931F93CF93DF938230910592
:1011B00010F482E090E0E0914E02F0914F0220E0C6
:1011C00030E0A0E0B0E0309719F140815181028118
:1011D000138148175907C8F08417950769F41097C9
:1011E00031F012960C93129713961C9327C000931C
:1011F0004E0210934F0222C02115310519F04217FB
:10120000530718F49A01BD01EF01DF01F801DBCFAC
:1012100021153105F9F0281B390B2430310580F4F4
:101220008A819B816115710521F0FB019383828383
:1012300004C090934F0280934E02FE01329644C048
:10124000FE01E20FF31F81939193225031093983FC
:1012500028833AC020914C0230914D02232B41F457
:10126000209102023091030230934D0220934C02F0
:1012700020910002309101022115310541F42DB772
:101280003EB74091040250910502241B350BE091BA
:101290004C02F0914D02E217F307A0F42E1B3F0B16
:1012A0002817390778F0AC014E5F5F4F24173507D8
:1012B00048F04E0F5F1F50934D0240934C028193B4
:1012C000919302C0E0E0F0E0CF01DF91CF911F9158
:1012D0000F910895CF93DF93009709F481C0FC012B
:1012E000329713821282A0914E02B0914F02109752
:1012F00081F420813181820F931F20914C02309123
:101300004D022817390751F5F0934D02E0934C0236
:1013100067C0ED0120E030E0CE17DF0740F44A81DE
:101320005B819E0141155105F1F0EA01F5CFD383B0
:10133000C28340815181840F951FC817D90759F482
:1013400088819981840F951F0296918380838A8179
:101350009B81938382832115310529F4F0934F02F9
:10136000E0934E023DC0E901FB83EA834991599124
:10137000C40FD51FEC17FD0761F480819181840FA4
:10138000951F0296E90199838883828193819B83CB
:101390008A83E0E0F0E012968D919C91139700977C
:1013A00019F0FD01DC01F7CF8D919C9111979D0102
:1013B0002E5F3F4F820F931F20914C0230914D02C0
:1013C0002817390769F4309729F410924F021092C8
:1013D0004E0202C013821282B0934D02A0934C02BF
:1013E000DF91CF910895DC0101C06D9341505040D1
:1013F000E0F708950F931F93CF93DF93CDB7DEB738
:101400002E970FB6F894DEBF0FBECDBF0E891F8991
:1014100086E08C831A8309838FEF9FE79E838D83F9
:10142000AE01465E5F4F688D798DCE01019610D07A
:10143000EF81F885E00FF11F10822E960FB6F89419
:10144000DEBF0FBECDBFDF91CF911F910F910895E9
:101450002F923F924F925F926F927F928F929F92C4
:10146000AF92BF92CF92DF92EF92FF920F931F93B2
:10147000CF93DF93CDB7DEB72B970FB6F894DEBFCF
:101480000FBECDBF6C017B018A01FC011782168261
:10149000838181FFBFC1CE0101963C01F60193819A
:1014A000F70193FD859193FF81917F01882309F4D2
:1014B000ADC1853239F493FD859193FF81917F0110
:1014C000853221F4B60190E0D6D1E8CF912C212CC1
:1014D000312CFFE1F315D8F08B3279F038F48032FB
:1014E00079F08332A1F4232D20611DC08D3261F08B
:1014F000803369F4232D216016C0832D8260382E3D
:10150000E32DE4603E2E2AC0F32DF8601DC037FCA9
:101510002DC020ED280F2A3040F08E32B9F436FC71
:1015200075C1232D2064322E19C036FE06C08AE014
:10153000989E200D1124922E11C0EAE02E9E200DBF
:101540001124222EF32DF0623F2E08C08C3621F498
:10155000832D8068382E02C0883641F4F70193FD50
:10156000859193FF81917F018111B3CF982F9F7D4A
:101570009554933028F40C5F1F4F9FE399830DC05F
:10158000833631F0833771F0833509F055C020C0C0
:10159000F801808189830E5F1F4F88248394912CEA
:1015A000530112C02801F2E04F0E511CF801A08037
:1015B000B18036FE03C0692D70E002C06FEF7FEF8F
:1015C000C5014ED14C018201F32DFF773F2E15C08E
:1015D000280122E0420E511CF801A080B18036FEA5
:1015E00003C0692D70E002C06FEF7FEFC5012DD100
:1015F0004C01F32DF0683F2E820133FC19C0822D7F
:1016000090E088169906A0F4B60180E290E033D10C
:101610002A94F5CFF50137FC859137FE81915F0162
:10162000B60190E028D121102A9421E0821A910875
:101630008114910479F7E1C0843611F0893639F5C7
:10164000F80137FE07C060817181828193810C5F50
:101650001F4F08C060817181072E000C880B990B09
:101660000E5F1F4FF32DFF763F2E97FF09C0909519
:101670008095709561957F4F8F4F9F4FF0683F2EFB
:101680002AE030E0A30133D1882E861844C0853784
:1016900031F4232D2F7EB22E2AE030E025C0932D89
:1016A000997FB92E8F36C1F018F4883579F0AEC025
:1016B000803719F0883721F0A9C0E92FE061BE2EEC
:1016C000B4FE0DC0FB2DF460BF2E09C034FE0AC06D
:1016D000292F2660B22E06C028E030E005C020E1A8
:1016E00030E002C020E132E0F801B7FE07C06081BF
:1016F0007181828193810C5F1F4F06C0608171816F
:1017000080E090E00E5F1F4FA301F1D0882E861875
:10171000FB2DFF773F2E36FE0DC0232D2E7FA22EF0
:10172000891458F434FE0BC032FC09C0832D8E7E20
:10173000A82E05C0B82CA32C03C0B82C01C0B92C0E
:10174000A4FE0FC0FE01E80DF11D8081803321F45D
:101750009A2D997EA92E09C0A2FE06C0B394B39417
:1017600004C08A2D867809F0B394A3FC10C0A0FEB3
:1017700006C0B21480F4280C922C9B180DC0B21431
:1017800058F4B60180E290E076D0B394F8CFB2146A
:1017900018F42B1802C0982C212CA4FE0FC0B601FF
:1017A00080E390E068D0A2FE16C0A1FC03C088E7E9
:1017B00090E002C088E590E0B6010CC08A2D8678E2
:1017C00051F0A1FE02C08BE201C080E2A7FC8DE2D5
:1017D000B60190E050D0891430F4B60180E390E077
:1017E0004AD09A94F8CF8A94F301E80DF11D8081D4
:1017F000B60190E040D08110F6CF222009F44ECE01
:10180000B60180E290E037D02A94F7CFF6018681C6
:10181000978102C08FEF9FEF2B960FB6F894DEBF33
:101820000FBECDBFDF91CF911F910F91FF90EF9031
:10183000DF90CF90BF90AF909F908F907F906F90F0
:101840005F904F903F902F900895FC01059061505C
:1018500070400110D8F7809590958E0F9F1F0895C6
:10186000FC016150704001900110D8F7809590956F
:101870008E0F9F1F08950F931F93CF93DF93FB014C
:10188000238121FD03C08FEF9FEF2CC022FF16C0E4
:1018900046815781248135814217530744F4A08142
:1018A000B1819D012F5F3F4F318320838C9326812F
:1018B00037812F5F3F4F3783268314C08B01EC01A4
:1018C000FB010084F185E02D1995892BE1F6D80103
:1018D00016968D919C911797019617969C938E93CF
:1018E0001697CE01DF91CF911F910F910895FA01C4
:1018F000AA27283051F1203181F1E8946F936E7F4F
:101900006E5F7F4F8F4F9F4FAF4FB1E03ED0B4E03F
:101910003CD0670F781F891F9A1FA11D680F791F80
:101920008A1F911DA11D6A0F711D811D911DA11D91
:1019300020D009F468943F912AE0269F11243019A1
:10194000305D3193DEF6CF010895462F4770405D3C
:101950004193B3E00FD0C9F7F6CF462F4F70405DEB
:101960004A3318F0495D31FD4052419302D0A9F746
:10197000EACFB4E0A6959795879577956795BA9540
:10198000C9F700976105710508959B01AC010A2E06
:1019900006945795479537952795BA95C9F7620FDD
:0E19A000731F841F951FA01D0895F894FFCF9C
:1019AE0000005002200000000000000000000000B7
:1019BE000000C70213022402F202780000000000A9
:1019CE000000F80656075A02670282029302AD0221
:1019DE0048067406A006CC062E07380742074C07A9
:0C19EE0084079607A807BA0725640000CC
:00000001FF
